:020000040800F2
:100000000020002001040008510D0008530D0008D5
:1000100000000000000000000000000000000000E0
:10002000000000000000000000000000550D000866
:100030000000000000000000570D0008590D0008E6
:10004000510400085104000851040008510400083C
:10005000510400085104000851040008510400082C
:10006000510400085104000851040008510400081C
:10007000510400085104000851040008510400080C
:100080005104000851040008000000005104000859
:1000900051040008510400085104000851040008EC
:1000A00051040008510400085104000851040008DC
:1000B0005104000800000000510400080000000086
:1000C0000448054B10B5834203D0044B002B00D0ED
:1000D000984710BD18000020180000200000000004
:1000E00006480749091A8B10C90FC91810B54910DD
:1000F00003D0044B002B00D0984710BD18000020FF
:10010000180000200000000010B5074C2378002BD9
:1001100009D1FFF7D5FF054B002B02D0044800E0C2
:1001200000BF0123237010BD180000200000000054
:10013000CC0E0008054B10B5002B03D00449054830
:1001400000E000BFFFF7CCFF10BDC046000000007C
:100150001C000020CC0E000870B50C4D0C4E761B18
:10016000B61005D0002408CD01349847A642FAD134
:1001700000F0ACFE074D084E761BB61005D00024EB
:1001800008CD01349847A642FAD170BDE40E0008AC
:10019000E40E0008E40E0008E80E0008F0B50500C3
:1001A000830749D0541E002A45D003000326CAB253
:1001B00002E00135013C3ED301332A703342F8D1CD
:1001C000032C30D9FF220A40150215432A04154397
:1001D0000F2C34D92700103F3F093E01B4461E00C2
:1001E0001A0010366644156055609560D56010326F
:1001F000B242F8D101373F01DB190F270C2227400B
:1002000022403C00002A0ED03E1FB608B400A4468F
:100210001A001C1D644420C2A242FCD103240136F2
:10022000B6009B193C40002C05D0C9B21C191970AE
:1002300001339C42FBD1F0BD03001400C0E727004E
:10024000E2E7C046002243088B4274D303098B4285
:100250005FD3030A8B4244D3030B8B4228D3030C96
:100260008B420DD3FF22090212BA030C8B4202D338
:100270001212090265D0030B8B4219D300E0090A60
:10028000C30B8B4201D3CB03C01A5241830B8B4269
:1002900001D38B03C01A5241430B8B4201D34B0352
:1002A000C01A5241030B8B4201D30B03C01A5241B7
:1002B000C30A8B4201D3CB02C01A5241830A8B423C
:1002C00001D38B02C01A5241430A8B4201D34B0225
:1002D000C01A5241030A8B4201D30B02C01A524189
:1002E000CDD2C3098B4201D3CB01C01A524183093D
:1002F0008B4201D38B01C01A524143098B4201D377
:100300004B01C01A524103098B4201D30B01C01AA1
:100310005241C3088B4201D3CB00C01A524183081B
:100320008B4201D38B00C01A524143088B4201D348
:100330004B00C01A5241411A00D2014652411046A8
:100340007047FFE701B5002000F006F802BDC04687
:100350000029F7D076E770477047C046F0B5C6462B
:1003600000B50F2A41D903270D003E0005430C00BC
:1003700003002E402F423DD11500103D2D09A84607
:100380002D01AC46844427681D001F6067685F60CC
:10039000A7689F60E7681034DF6010336545F2D1CD
:1003A00045460F230C2401352D01491913404519E9
:1003B000144222D08C59AC5104369C1B032CF9D822
:1003C000043B9B0801339B00ED18C91803231A4016
:1003D000561E002A06D00023CC5C1A00EC540133D0
:1003E0009642F9D180BCB846F0BD0500561E002AE1
:1003F000F1D1F7E70500561EEDE71A00F6E7C04613
:100400000D4885460D480E490E4A002302E0D45897
:10041000C4500433C4188C42F9D30B4A0B4C00234C
:1004200001E013600432A242FBD300F096FCFFF718
:1004300093FE00F01DFCFEE70020002000000020DD
:1004400018000020EC0E00081800002064020020B4
:10045000FEE70000F0B587B015006A46CC0F6418BF
:10046000641063000733DB08DB00D31A00AF9D463E
:100470006E467860220000213000FFF78FFE0023D7
:100480007868A34236DB01222D4BFC60D96811420B
:10049000FCD11A69120605D52A4A12685A602A4AFE
:1004A00012685A60AA0515D1196902320A431A6105
:1004B00040225D6119690A431A610122D96811421B
:1004C000FCD12022D968114200D0DA6002211A69D9
:1004D0008A431A61002220203A617A6101327C69E4
:1004E000F9688C4211D38022BD4619690A431A610A
:1004F00007B0F0BD4278120294466146027802309D
:100500000A43590072520133BBE71969114319615B
:100510007C6939696400A45B49190C80D96811426F
:10052000FCD1D968014200D0D860196991431961A2
:10053000396902313961796901317961CFE7C046A2
:10054000002002400000002004000020002310B51D
:10055000934200DB10BDCC5CC4540133F8E70000CB
:1005600000B589B01422002103A8FFF717FE8020F0
:100570000D4B800259690143596180215A69C902B2
:1005800002400192019A5A6908480A435A615B691C
:100590000B400093009B102302A902930F3B06938C
:1005A00000F0DCFB09B000BD001002400004004870
:1005B00080230022DB055A625A6A8242FCD37047CC
:1005C00010B572B6094B0A4A1B681360094A1278C3
:1005D000012A03D00022084B1A8010BD074A13607D
:1005E000074A126882F308889847F6E70410000863
:1005F00038000020007C0008520000203C00002051
:1006000000100008F7B50191002100900B000800D0
:100610000125124A124F11705170019C84420BDC6B
:10062000002902D013701B0A537011780D4B1970FA
:1006300052780D4B1A70F7BD00990C5C082126000A
:100640005E405B082E4201D07B409BB20139C9B2AB
:1006500064080029F3D129000130DEE734000020CE
:1006600001A0FFFF470000204600002070B543189E
:10067000455C5C78FFF7C6FF054B00201B78AB425A
:1006800005D1044B1878001B43425841C0B270BDDD
:10069000470000204600002010B5FFF761FF002250
:1006A000014B1A6010BDC0465C0100200449054A98
:1006B0000B681A4080235B0013430B607047C046F1
:1006C00000040048FFFCFFFFF8B5802100231E4D09
:1006D0001E4E2B70C905103332691A4225D0802076
:1006E000FA271B4BC0051978BF001023326914008C
:1006F0001C401A4221D11A20FFF75AFF012734204B
:10070000FFF756FF33692A781B093B40A3400134A9
:1007100013432B70082CF2D11A20FFF749FF0C4B22
:100720002A781F700B4B1A7006E0486A0A4A9042FA
:10073000D2D96522094B1A80F8BD426ABA42D5D98E
:100740000029D2D0F8E7C046630200200004004828
:100750005800002060010020400D030052000020DE
:10076000F8B51027050008240A4EB7623420FFF7B9
:100770001FFF01231D420BD0B761013CE4B26D089D
:10078000002CF3D13420FFF713FF1023B361F8BD21
:10079000B762F2E70004004810B5FFF787FF30208A
:1007A000FFF7DEFFFFF778FF10BD10B5FFF77EFF04
:1007B000C120FFF7D5FFFFF76FFF10BD10B5FFF7A2
:1007C00075FFC220FFF7CCFFFFF766FF10BD70B5C5
:1007D00006000D000024AC4200DB70BD305DFFF769
:1007E000BFFF9C20FFF7E4FE0134F4E710B5FFF7EC
:1007F0005DFF09210248FFF7EAFFFFF74DFF10BD3B
:1008000008000020F7B58F4D8F4C2B7800AF002BE0
:100810001ED08E4B200019888D4B1980FFF726FFC4
:10082000002812D080228B4E002152003000FFF7AA
:10083000B5FC874B21001A883000FFF78FFDFFF7CA
:10084000ABFF00232B70BD46F7BDFFF7B7FFFAE7FC
:10085000814B21781960237C7D2B0AD1237A0D2BC3
:10086000F1D1637A422BEED1FFF7C0FF002323754D
:10087000E9E7237D7D2B05D1237B0D2B02D1637B03
:10088000422BF1D0230028331B787D2B07D1631C2A
:10089000DB7F0D2B03D1A31CDB7F422BE4D000298F
:1008A00012D1A27863781343E278134302D1652210
:1008B0006A4B1A80FFF7FAFEC120FFF751FF674A23
:1008C00013880133138048E0012917D1604B0131AF
:1008D00020001980FFF7CAFE0028B6D0604B1A68C6
:1008E000604B9A4202D8FFF760FFACE7574B59487C
:1008F0001988FFF7AFFDFFF74FFFA4E7FF2916D1D7
:10090000534BFB3920001980FFF7B0FE00289CD024
:100910000022524BA1781A808022E37812051B0234
:100920000B435BBA9BB29B184D4A1360E3E7FE2969
:1009300019D1474BFA3920001980FFF797FE00289C
:1009400083D0A378012B0BD0E378404A1380012396
:1009500080222B70444B52001A80FFF79DFE72E7F5
:1009600080235B00F1E7FD290ED1394BFB392000D4
:100970001980FFF77BFE002800D166E7FFF796FE9F
:10098000C120FFF7EDFEE8E702290DD1304B200032
:100990001980FFF76BFE002800D156E7304A314B33
:1009A00012689A429FD9A6E704293AD101222F4B17
:1009B0001A707FE72E4A1368013313606478002CA5
:1009C00001D10134FF348022274B1A80FFF76EFEDD
:1009D0006A46E31C7B600733DB08DB00D31A9D46C5
:1009E0006D46E21C00216846FFF7D8FB1C4B220035
:1009F00019686846FFF7AAFD21006846FFF702FE66
:100A00001C4B1D4A1B7812782B55631CEA5430236B
:100A10000234684679682B55FFF7D9FEFFF73CFE94
:100A20000DE0032900D045E70221094B20006E4666
:100A30001980FFF71BFE0028BCD1FFF7BFFEB546AB
:100A400001E7C04651000020610100205A0100204A
:100A500054000020590000204800002052000020CF
:100A600040000020FF0F000844000020500000203C
:100A70004C0000204700002046000020F8B58122ED
:100A800000241C4D1C4E1D4B2100280080275200C5
:100A900034601C70FFF782FBFF05FFF715FE184B53
:100AA0001B78002B0DD0174B174A1B7812882B7020
:100AB0003368023201333360934214D1FFF7A2FE50
:100AC000F8BDFA217A6A89008A4201D93360F5E7D4
:100AD0000C4B1B782B700223FF339C4203D10B4A33
:100AE0001388143313808123013401355B009C4249
:100AF000D3D1E3E7610100204C0000205800002022
:100B000051000020630200205A0100205200002002
:100B100010B50A4C302220000949FFF717FDA378D1
:100B20000B2B0AD0013BDBB2FD2B06D80B23302167
:100B30002000034AA370FFF78DFC10BD6101002067
:100B4000007C0008F8B58023FA201D4C1D4FE26898
:100B50009B003A401343FA26E3604000FFF728FD6C
:100B60001025760023692B4203D1174A13880133DD
:100B700013800A20013EFFF71BFD002EF2D1124D1B
:100B80002B88002B1BD0FA20E3682E803B40E360CB
:100B90004000FFF70DFD1027F536FF3623693B4275
:100BA00002D12B8801332B800A20013EFFF700FD84
:100BB000002EF3D12B88002B01D0FFF701FDF8BDEB
:100BC00000040048FFFCFFFF5600002001222349DB
:100BD00010B50B68934313430B600B68204B1968E7
:100BE0000A431A60022219681142FCD0F8211A68DF
:100BF0008A43110080220A431A605A681949114039
:100C0000A02292030A430F215A60DA6A8A43DA6209
:100C10008022196852040A431A60802292041968DB
:100C20001142FCD0F0215A688A435A605A680E4932
:100C30000A4003215A605A688A43110002220A437B
:100C40000C215A605A680A40082AFBD1074800F074
:100C500027F9064800F034F910BDC04600200240D4
:100C600000100240FFFFC2FFFFF8FFFF006CDC0234
:100C700070B5012580212E4C88B0A36949052B430E
:100C8000A361A36903AE2B400193019BE2690A4370
:100C9000E261E369274A0B400093009B102311682F
:100CA0000B431360FFF792FF142200213000FFF77F
:100CB00075FAE36931002B43E361E36980242B403B
:100CC0000293029B2F23E40533802000303B0593E1
:100CD00000F096F880222368174993432360A368A5
:100CE0000B407021A36063688B436360A3689343E8
:100CF000A36023681D432560FFF732FCFFF722FF46
:100D00000E490F4ACB681A4080235B001343CB6027
:100D10000C4B1A780C4BDA70FFF7FAFEFFF7AEFEB9
:100D20000A4B1B88642BF9D9FFF74AFCF6E7C0464B
:100D30000010024000200240F8BFFFFF00040048FE
:100D4000FFFCFFFF110000200800002052000020DF
:100D50007047FEE77047704770477047F7B500254A
:100D60004B680A6800935E1E1300EB4009D1012E08
:100D700005D84368C96893434A431A434260002038
:100D8000FEBD01241300AC40234022422BD01A00A8
:100D900003275A435743BC46FF43019767460468FD
:100DA000BC43009F57433C430460012E06D88C6827
:100DB00086685443019F3E40344384600C69C66892
:100DC0005443019F3E402643009CC660022C0AD13A
:100DD0004C69FF2B09D80F26524356436243036ADE
:100DE000B3431A4302620135BAE70F261B0A5B437D
:100DF0005B435E436343426AB2431A434262F2E793
:100E0000204A10B50368904206D08024E405A04231
:100E100002D01D4CA0420CD17024A3434C68234344
:100E2000904212D08024E405A0420ED0164CA0427D
:100E30000BD0164CA04208D0154CA04205D0154C42
:100E4000A04202D0144CA04203D1144C2340CC68E1
:100E5000234303608B68C3620B888362904208D08F
:100E60000B4B984205D00B4B984202D00A4B98424C
:100E700001D10B7C036301234269134343610020CA
:100E800010BDC046002C014000040040002000407E
:100E9000004001400044014000480140FFFCFFFFCA
:100EA000FA2110B58900FFF7CDF90022034B013874
:100EB00058609A6005321A6010BDC04610E000E02C
:100EC000014B18607047C04614000020F8B5C046BA
:100ED000F8BC08BC9E467047F8B5C046F8BC08BCD4
:040EE0009E46704773
:040EE40035010008CC
:040EE80009010008F4
:100EEC0023016745AB89EFCD343731001F0606016E
:080EFC003014000000127A001E
:010FFC000BE9
:0400000508000401EA
:00000001FF
